:1000000012C024C023C022C021C020C01FC01EC0F7
:100010001DC01CC01BC01AC019C018C017C016C014
:1000200015C014C013C011241FBECFE5D4E0DEBF3D
:10003000CDBF10E0A0E6B0E0E4EFF9E002C005902B
:100040000D92A237B107D9F75FD0D2C4D9CF80E4DF
:1000500087B987E886B9089580E491E097BD86BDA9
:1000600082E08FBD80E18EBD8FB5806C8FBD8EB577
:1000700081608EBD0895AC98AB98AA980895FBDF77
:10008000AA9A8FEF90E09BBD8ABD0895F4DFAB9AEA
:100090008FE790E09BBD8ABD0895EDDFAC9A1BBC55
:1000A0001ABC089597B18770892B87B9369A349B0B
:1000B000FECF349A24B135B1C90108958FEF81BBC9
:1000C00082EC87BB8CE384BBAD9A8FEF99E6A8E105
:1000D00081509040A040E1F700C00000AC9A8FEF43
:1000E00099E6A8E181509040A040E1F700C00000EF
:1000F000AB9A8FEF99E6A8E181509040A040E1F7DC
:1001000000C00000AA9A08956F927F928F929F92EA
:10011000AF92BF92CF92DF92FF920F931F93DF9324
:10012000CF930F92CDB7DEB7C9DF96DF04D17894B5
:10013000FCD080E690E0E8D08FEF97EAA1E681500E
:100140009040A040E1F700C0000080E487B987E854
:1001500086B980E090E060D3F82E89518A3110F0A2
:10016000EEE1FE2E198271E0A72EB12C61E0C62EC1
:10017000D12C59E6852E50E0952EB59B02C0CC249B
:10018000DD24B5990AC0C114D10439F499E19F1551
:1001900008F4FA9441E0C42ED12CB49B02C0AA24E6
:1001A000BB24B4990AC0A114B10439F4A1E3AF157A
:1001B00008F0F39431E0A32EB12C80E090E06F2D95
:1001C00033D380E06FDF96958795082F10E06F2C72
:1001D000772400D000D000D0EDB7FEB73196ADB790
:1001E000BEB712969C928E921197138302837582EA
:1001F0006482F5D0C80186199709EDB7FEB7369627
:100200000FB6F894FEBF0FBEEDBF02973CF4601A24
:10021000710AF2E06F1671048CF415C02981233045
:1002200049F4ABCF2CDF31E03983A7CF2FDF82E059
:100230008983A3CF32DF93E099839FCFA981A13037
:1002400009F49BCFEFCFB981B23009F496CFEECF4E
:10025000662311F0C79A01C0C79887FF02C0979A1A
:1002600001C09798982F86FF02C0969A01C0969871
:1002700095FF02C0959A01C0959894FF02C0949A88
:1002800001C0949893FF02C0939A01C0939892FF83
:1002900002C0929A01C0929891FF02C0919A01C047
:1002A000919890FF02C0909A01C0909800C0C69AA1
:1002B00092E09A95F1F700C0C698979A969A959A07
:1002C000949A939A929A919A909A662341F48430E0
:1002D00030F48FE999E10197F1F700C003C095ED83
:1002E0009A95F1F70000089561E0B2DF0895CF9389
:1002F000DF93EC0101C0F8DFFE0121968491882391
:10030000D1F7DF91CF910895CF93DF93EC0101C036
:10031000EBDF89918823E1F7DF91CF91089560E0C9
:1003200097DF089582E0FBDF089581E0F8DF08950C
:100330008058F5DF0895BE9ABF9A8F9A8E9A8D9A4B
:100340008C9A8B9A8A9A899A889AC698C798979A0B
:10035000969A959A949A939A929A919A909A8FE5EE
:100360009AEE0197F1F700C000009798969800C0A8
:10037000C69A92E09A95F1F700C0C6988FE090E493
:100380000197F1F700C00000C69A92E09A95F1F744
:1003900000C0C6988FE891E00197F1F700C0000017
:1003A000C69A92E09A95F1F700C0C69885ED8A95B5
:1003B000F1F700009398929800C0C69A92E09A953F
:1003C000F1F700C0C69885ED8A95F1F7000088E046
:1003D000A6DFABDF86E0A3DF8CE0A1DF08950F93FB
:1003E0001F93DF93CF93CDB7DEB7C050D1400FB688
:1003F000F894DEBF0FBECDBFFE01E95FFE4F419115
:1004000051918E010F5F1F4FC8016FEF70E09F0188
:100410000ED0C80179DFC050DF4F0FB6F894DEBFB1
:100420000FBECDBFCF91DF911F910F910895AEE028
:10043000B0E0ECE1F2E0B3C28C0177FF02C060E013
:1004400070E8615070407E836D831A83098386E073
:100450008C83CE010196BA01A90110D02D813E8175
:1004600037FD09C0EF81F8852E173F070CF4F9011D
:10047000E00FF11F10822E96E4E0ADC2ABE0B0E0D9
:10048000E3E4F2E07EC23C012B015A01FC01178239
:100490001682838181FD03C06FEF7FEFB9C19AE0BF
:1004A000892E1E010894211C311CF3012381F201C5
:1004B00023FD859123FF81912F01882309F4A5C194
:1004C000853239F423FD859123FF81912F018532F7
:1004D00021F490E0B301CBD1E8CF982FFF24EE2494
:1004E0009924FFE1FF15D0F09B3269F09C3228F48B
:1004F000903259F0933291F40EC09D3249F090330E
:1005000069F441E024C052E0F52A84E0F82A28C0CA
:1005100098E0F92A25C0E0E1FE2A22C0F7FC29C0B4
:10052000892F80538A3070F4F6FE05C0989C902C79
:100530001124980E15C0E89CE02C1124E80EF0E27E
:10054000FF2A0EC09E3229F4F6FC5FC140E4F42A73
:1005500007C09C3619F450E8F52A02C0983649F4D1
:10056000F20123FD959123FF91912F01992309F029
:10057000B8CF892F8554833018F08052833038F4F7
:1005800044E050E0A40EB51E5FE359830FC09336DC
:1005900031F0933779F0933509F052C01FC0F5015F
:1005A0008081898342E050E0A40EB51E610101E024
:1005B00010E011C0F501C080D180F6FC03C06FEFE0
:1005C0007FEF02C0692D70E042E050E0A40EB51E3E
:1005D000C60142D18C015FE7F52213C0F501C0804E
:1005E000D180F6FC03C06FEF7FEF02C0692D70E091
:1005F00042E050E0A40EB51EC60123D18C0150E8A4
:10060000F52AF3FE06C018C080E290E0B3012FD1B6
:10061000EA948E2D90E008171907B0F30DC0F6018B
:10062000F7FC8591F7FE81916F0190E0B3011FD136
:10063000E110EA94015010400115110581F7E2C064
:10064000943611F0993661F5F7FE08C0F501208166
:1006500031814281538184E090E00AC0F5018081BC
:1006600091819C01442737FD4095542F82E090E012
:10067000A80EB91E9FE6F92257FF09C05095409574
:10068000309521953F4F4F4F5F4FE0E8FE2ACA015A
:10069000B901A1012AE030E016D1D82ED2183FC00E
:1006A000953729F41F2D1F7E2AE030E01DC01F2D35
:1006B000197F9F3661F0903720F4983509F0A5C076
:1006C0000FC0903739F0983709F09FC004C028E078
:1006D00030E00AC0106114FD146020E130E004C075
:1006E00014FD166020E132E017FF08C0F5016081BB
:1006F00071818281938144E050E008C0F5018081DE
:100700009181BC0180E090E042E050E0A40EB51E73
:10071000A101D9D0D82ED2188FE7F82EF122F6FEFB
:100720000BC05EEFF522D91438F4F4FE07C0F2FCDA
:1007300005C08FEEF82202C01D2D01C0192DF4FE58
:100740000DC0FE01ED0DF11D8081803319F499EE8D
:10075000F92208C01F5FF2FE05C003C08F2D867806
:1007600009F01F5F0F2DF3FC13C0F0FE0EC01E1525
:1007700010F09D2C0AC09D2C9E0C911A1E2D05C0B8
:1007800080E290E0B30173D01F5F1E15C8F304C070
:100790001E1510F4E11A01C0EE2404FF0EC080E320
:1007A00090E0B30164D002FF1BC001FD03C088E7E5
:1007B00090E00EC088E590E00BC0802F867881F035
:1007C00001FF02C08BE201C080E2F7FC8DE290E005
:1007D000B3014DD005C080E390E0B30148D09A94B6
:1007E000D914C8F3DA94F101ED0DF11D808190E088
:1007F000B3013DD0DD20B1F705C080E290E0B30148
:1008000036D0EA94EE20C9F750CEF30166817781A5
:10081000CB012B96E2E1D1C0E199FECF9FBB8EBB0D
:10082000E09A99278DB30895262FE199FECF9FBBBB
:100830008EBB2DBB0FB6F894E29AE19A0FBE0196DB
:100840000895FC010590615070400110D8F7809523
:1008500090958E0F9F1F0895FC016150704001908C
:100860000110D8F7809590958E0F9F1F08950F93D4
:100870001F93CF93DF938C01EB018B8181FF1BC012
:1008800082FF0DC02E813F818C819D812817390701
:1008900064F4E881F9810193F983E88306C0E8856F
:1008A000F985802F0995892B31F48E819F810196DE
:1008B0009F838E8302C00FEF1FEFC801DF91CF919E
:1008C0001F910F910895FA01AA27283051F1203184
:1008D00081F1E8946F936E7F6E5F7F4F8F4F9F4FD4
:1008E000AF4FB1E03ED0B4E03CD0670F781F891F16
:1008F0009A1FA11D680F791F8A1F911DA11D6A0FE4
:10090000711D811D911DA11D20D009F468943F9196
:100910002AE0269F11243019305D3193DEF6CF0195
:100920000895462F4770405D4193B3E00FD0C9F75B
:10093000F6CF462F4F70405D4A3318F0495D31FDC8
:100940004052419302D0A9F7EACFB4E0A69597951B
:10095000879577956795BA95C9F7009761057105F1
:1009600008959B01AC010A2E06945795479537953B
:100970002795BA95C9F7620F731F841F951FA01D95
:1009800008952F923F924F925F926F927F928F9233
:100990009F92AF92BF92CF92DF92EF92FF920F930E
:1009A0001F93CF93DF93CDB7DEB7CA1BDB0B0FB618
:1009B000F894DEBF0FBECDBF09942A8839884888D5
:1009C0005F846E847D848C849B84AA84B984C8846B
:1009D000DF80EE80FD800C811B81AA81B981CE0F62
:1009E000D11D0FB6F894DEBF0FBECDBFED01089547
:0409F000F894FFCFA9
:1009F4005370696E6E696E67005425642D522564C8
:020A04004300AD
:00000001FF
